:020000000C945E
:1000020050000C9400000C9400000C9400000C941E
:1000120000000C9400000C9400000C9400000C945E
:1000220000000C9400000C9400000C94C0000C948E
:1000320000000C947D000C9400000C9400000C94C1
:1000420000000C9400000C9400000C9400000C942E
:1000520000001027E80364000A00010000100001FC
:10006200100001000000FF0001000000000000007D
:10007200256400310025640A0032000080C00100BE
:10008200020066000A0004006800020060027500B7
:10009200020062027B00020080027E000000F894EF
:1000A200EE27ECBBF1E0FBBFEBBFE5BF8DE0A2E0CA
:1000B200BB27ED938A95E9F780E098E0A0E6ED93FF
:1000C2000197E9F7E0E8F0E085919591009761F0FA
:1000D200A591B59105901590BF01F00105900D9283
:1000E2000197E1F7FB01F0CFEFE5EDBFE8E0EEBFEE
:1000F200C0E6D2E00C94ED00EA93FA93EFB7EA93EC
:100102001A930A931BB10CB1E12FEC7189F4EB2D18
:10011200B394F0E0E858FD4F0083E8E0EB1509F4F2
:10012200BB24D394E8E0ED1519F4DD24689420F89B
:1001320009911991E991EFBFF991E99118951A93F3
:10014200DD20F1F3EA2DA394F0E0E858FD4F108191
:10015200E8E0EA1509F4AA24F894DA947894E12FF5
:1001620019910895AA93E881E7B98BE18A95F1F78D
:10017200349BFECF349AE4B1F5B10C94FA010A92A1
:100182001A92FA926A937A938A939A93AA93BA9357
:10019200EA93FA93EFB7EA93A0E0E4DF3F010E940B
:1001A200C9060E944606DF01CB01ECEBF4E763E0EF
:1001B20070E40E9474060E940F063F01E991EFBFAE
:1001C200F991E991B991A99199918991799169915D
:1001D200F990199009901895E0E0EABBEBBBE7BBF8
:1001E200E8BBE4BBE5BBE1BBE2BBE7E0E3BFE0E0C9
:1001F200E2BFECBFEFBDEEBDEDBDECBDE7BDE6BDC0
:10020200EBBDEABDE9BDE8BDE2BDE5BDE4BDE3BDD0
:10021200E1E0E9BFE0E0E5BFE4BFE2E0EBB9E8E935
:10022200EAB9E6E8E0BDE0E0E0BDE7E6E9B9E0E82A
:10023200E8B9E0E0E7B9E3EAE6B9E0E8E0BFE0E028
:10024200EDB9E6BFA8E0A2D07894E2E7F0E0FA9335
:10025200EA93E8E0F0E060E070E00E94DE0684E00D
:100262000E94190526964814590439F5A0E6B2E011
:100272007DD0E7E7F0E0FA93EA93F3010E94C90622
:100282000E94DE0684E00E94A1032696A2E6B2E066
:100292006DD0E4E6F2E0FA93EA93E2E7F0E0FA9353
:1002A200EA93F4010E94C9060E94DE0684E00E94DD
:1002B20073032896A4E6B2E059D0C7CFFFCFAA9322
:1002C200E5B3EF70AE2FE881E07FEA2BE5BB8DE06E
:1002D2008A95F1F7AA9A8DE08A95F1F7AA988DE0AE
:1002E2008A95F1F70C94FA01AA93A881E8DFE881D4
:1002F200E295E883A881E3DF85E88A95F1F779C082
:10030200AA93E881F0E0E058FD4FE081A981AE0FA9
:10031200EBDFC980E881E093840222960895A2E08F
:100322000E947205ACE0E0DFA1E00E947205E0E00D
:10033200E0938402CE2E0895AA93A881AA3021F0D8
:10034200E0918502CE1660F0E0E0EA93A09184028B
:10035200AF5FA0938402D4DFA881AA3009F449C018
:10036200C394A89AA881C0DFA89843C0BA93AA935D
:100372001A93A981BA81ED91A983BA831E2FE03025
:1003820019F0A12FD9DFF5CF18813DC0AA93E4B3AC
:10039200E06FE4BBA29AA09AA19AAA98A898A998F9
:1003A200E881E0938502E058E0938202E881E0541C
:1003B200E0938302A4E1B0E00E94D6050E94780592
:1003C2000E9478050E947805A0E279DF88EC90E02F
:1003D2000197F1F7A8E288DFA4E086DFA5E884DFD1
:1003E200A6E082DF9CDF05C0AA935D9BFECFE88179
:1003F200ECB921960895BA93AA93AA81F5DFA88150
:10040200B9810E94800523960895BA93AA931A93FC
:100412000A93AA81BB8112960E94D606309729F1CF
:10042200AA81BB8114960E94D6068F01309761F093
:100432000230E0E01E0780F0F80131978F01AA81B7
:10044200BB811496ED93FC93AA81BB8112960E9404
:1004520080053197AC81A083AA81BB810E94D60618
:10046200FF2312F00E94800506C0AA81BB81EFEF34
:10047200FFEFED93FC931981088196C1BA93AA9379
:1004820026970E94E30610E0AC85BD85E0E0F0E02F
:10049200ED93FC93EA89FB893196EA8BFB8B3197CA
:1004A200E4912E2FE03009F415C1E12FE03039F448
:1004B200253211F411E002C00E9486050AC1E13022
:1004C200A9F4253219F40E94860502C112E040E027
:1004D20000E02D3211F401E0FCC02B3211F44BE2AA
:1004E200F8C0203211F440E2F4C002C0E23039F424
:1004F20050E013E0203311F40068EBC003C0E33096
:1005020009F0E7C0203310F02A3308F007C0AAE050
:100512005A9F502DE22FE0535E0FDBC0E22FE336ED
:1005220049F40E948D05E889F989A481AA930E9461
:100532009305CEC0E33741F40E948D050E949905D0
:100542000E9459051E2F0AC0E03761F40E948D05F2
:100552000E9499050E9465051E2F086002600F77B0
:1005620030E034C0E43611F0E93611F4046002C020
:10057200E53731F4E4E5F0E0EE83FF8315E00CC0EB
:10058200E83511F4086003C0E83709F0A1C0EEE5D0
:10059200F0E0EE83FF8314E002FF14C00E948D0599
:1005A2000E94A305AB85AA233AF4EA85FB850E9443
:1005B200BD06EA87FB874DE2403011F01F5F01C0A4
:1005C2000B7F04C00E948D050E94A30500FD11C08F
:1005D200151778F407FF08C002FF04C00B7F242F11
:1005E200115001C020E301C020E20E948605515053
:1005F200EFCF312F01FF17C03030A1F003FF06C04B
:10060200EE81FF812591EE83FF8305C0AE81BF811C
:100612002D91AE83BF830E948605503009F0515060
:100622003150EACF4BC020E3EE81FF810E94DA060F
:10063200E887F987EE81FF813296EE83FF83E885B2
:10064200F985AA85BB85AE17BF0750F02F5FA88535
:10065200B985EA85FB85EA1BFB0BEA87FB87EFCFAF
:100662002A3328F003FF02C0295F01C0295D04FD7F
:100672001AC0213320F4A885B985119709F409C05D
:10068200531710F000FF01C013C020E207FF0BC098
:1006920020E3006102FF07C00B7F4A930E9493058B
:1006A200503009F051500E948605503009F05150E7
:1006B2003150A885B985129708F0B5CF00FF08C060
:1006C200503031F05150E0E2EA930E949305F8CFA6
:1006D20010E0E0CEAC85BD850E94D6060E94EA06F7
:1006E20064960895FF92F82E26970E94E5060E94CE
:1006F200AB05309719F4EFEFFFEF1DC0DE01169640
:100702000E94B9068D010E94AB05EE83FF83E0E0F3
:10071200E887E987DE011A960E94B205E6E0F2E078
:10072200FA93EA93DE011A96A9DE9F01AE81BF8198
:10073200E0E0EC93F9010E94EC062A96FF900895FE
:10074200FF92F82E26971A930A93DE0114960E94BE
:10075200B9068D01E0E0EC83ED83EE83EF83DE01E9
:1007620018960E94B205ECEFF1E0FA93EA93DE01EB
:10077200189684DE198108812896FF900895BA930D
:10078200AA931A93A981BA81E0E0EC93AB81BC8170
:10079200EC911E2FE03019F0E0E0EC9303C00E94D0
:1007A200A0001E2FE12F188125960895FF92BA937B
:1007B200AA9324970E94E306E0E0F0E0E887F98735
:1007C2004E2FE889F9893196E88BF98B3197E491BC
:1007D2003E2FE03009F425C10E94BB05C1F0EDB700
:1007E200FEB7FA93EA934F930E94C0054F913E2FB2
:1007F200E03019F00E94BB0509F407C00E94C6054B
:100802001CF4EFEFFFEF0FC1EACF432F09C13532DE
:1008120009F0EEC050E0E889F9893591E88BF98B4F
:10082200303310F03A3308F007C0AAE05A9F502D37
:10083200E32FE0535E0FEFCF303009F4F2C0EDB793
:10084200FEB7FA93EA934F930E94C0054F912E2F61
:10085200AE2F0E943F05E03039F00E94C6051CF41D
:10086200EFEFFFEFE0C0EBCF203009F4D1C0422F11
:10087200503009F45FEFE32FE33699F40E94CB0581
:10088200EDB7FEB7FA93EA934F930E94C0054F91DA
:10089200D801EC930E94C6051CF4EFEFFFEFC3C032
:1008A200A1C0E33741F50E94CB05E52F5150E0305E
:1008B200F1F0EDB7FEB7FA93EA934F930E94C005A9
:1008C2004F913E2FE03019F00E94BB0539F00E9493
:1008D200C6051CF4EFEFFFEFA6C009C01F930F93EC
:1008E2000F5F1F4FE32FAF91BF91EC93DECFD80183
:1008F200E0E0EC9377C06894F1F8E894F2F8E32F23
:10090200E43611F0E93619F4E894F1F802C0E5375B
:1009120011F42AE008C0E83711F420E104C0E532FE
:1009220009F466C07EC0E0E0EE83EF836894F0F8DD
:10093200E52F5150E03009F446C0EDB7FEB7FA9307
:10094200EA934F930E94C0054F913E2FE13238F453
:100952000E94C6051CF4EFEFFFEF65C017C0F1FC63
:1009620008C06894F1F83D3211F4F2F8E1CF3B325D
:10097200F9F2203131F4A32F0E944A05E03031F020
:1009820009C0A32F0E943605E03021F4F0FC49C0D3
:10099200432F19C0313610F0375505C0313410F0ED
:1009A200375301C03053E22FAE81BF81F0E00E9485
:1009B200CE06DF01E32FF0E0EA0FFB1FEE83FF8399
:1009C200E894F0F8B5CF0E94CB05F2FE06C0EE81A6
:1009D200FF810E94BD06EE83FF83EE81FF81D80175
:1009E200ED93FC93E885F9853196E887F98718C07D
:1009F200EDB7FEB7FA93EA934F930E94C0054F9169
:100A0200E31771F00E94C6051CF4EFEFFFEF0BC075
:100A1200E885F985309719F4EFEFFFEF04C001C0C4
:100A2200D0CEE885F9850E94EA066296FF90089585
:100A3200FF92F82E23971A930A93DE0111960E94D1
:100A4200B9068D01E0E0EB83EC83DE0115960E948E
:100A5200B205E0ECF3E0FA93EA93DE011896A6DE23
:100A6200198108812596FF900895AA93E1E0F991F2
:100A7200F03310F0FA3308F0EE270895AA93E1E07C
:100A8200F991F03229F0F93010F0FE3008F0EE273B
:100A92000895AA93E1E0F991F05340F0FA3038F06A
:100AA200FF75F750FA3010F0F03108F0EE27089594
:100AB200BA93AA93A991B991EE27FF276D91662364
:100AC20011F03196FBCF0895BA93AA93AA27BB27B8
:100AD200E991F9910590002011F01196FBCFFD01EB
:100AE20008950E947501A3E0B0E00C94D605A0E33E
:100AF2000E94600188EC90E00197F1F70895ED9172
:100B0200FD913196FE93EE9308952A93AD85BE85AD
:100B1200EF85F88909950895E889F9893497E88B72
:100B2200F98B0895AD85BE85EF85F88909950895FD
:100B3200A889B98914960E94D606EE83FF83AE81F6
:100B4200BF810895A889B98914960E94D606EA87BA
:100B5200FB870895DE011C960E94B9060E94D60604
:100B620008950E94B9060E94D606FA93EA931A9350
:100B72000A930895A32F0E943F05E0300895AC85A3
:100B8200BD85EE85FF8509950895AA85BB85AC9143
:100B9200A0300895EE85FF853497EE87FF87AE85F6
:100BA200BF8514960D911C910895109639F080ED31
:100BB20097E00197F1F7A8951197C9F70895552382
:100BC20042F4503811F4E0FF04C03196691F791FD6
:100BD2006BF050E8572711F45F9373C05F3F31F019
:100BE200660F000C57956795752F08955F93002047
:100BF2000AF073C06CC050E8192E1522880F991F95
:100C02009527550F879550E8072E0522660F771F07
:100C12007527550F67950895689401C0E8945F930E
:100C2200F2DF703818F07F3F08F44BC056E1571BD3
:100C3200AAF4519558300EF4593030F0EFEFFFEF2F
:100C42006FEF7FE777F91AC077275523B9F0EE0FD8
:100C5200FF1F661F771F5A95D1F710C077275830AC
:100C620028F0EF2FF62F672F5850F9CF552331F088
:100C720076956795F795E7955A95D1F700200AF48E
:100C82007FD05F910895689401C0E89430976040E6
:100C92007040B1F0002426F0772312F4009470D053
:100CA200172E7EE1112032F07A95EE0FFF1F661F9C
:100CB200111CF9CFEF2FF62F612D5F938ADF5F9121
:100CC2000895EE27FF27662777275F910895EFEFB4
:100CD200FFEF6FE77FEF5F910895EFEFFFEF6FE7B1
:100CE2007FE75F9108955F9386DF703821F41120CA
:100CF2000AF4EDCFF2CF903809F4E3CF012408943F
:100D0200970B1BF4D4F30020F3CF792F1F932F936B
:100D12003F934F9311241127222733274427552726
:100D220090E2AE17BF078607410730F0AE1BBF0B3C
:100D3200860B410B089401C08894551F221F331F54
:100D4200111CAA1FBB1F881F441F9A9551F7F90156
:100D5200612D4F913F912F911F91662332F0550FD4
:100D6200EE1FFF1F661F7A9543F229DF5F910895F8
:100D72000024AF0DB01D0895F195E195F04008955E
:100D8200F09560957095E195FF4F6F4F7F4F0895F5
:100D92006F2F660F660B762F0895FA9FF02DEB9F4B
:100DA200F00DEA9FE02DF10D0895ED91FC91119760
:100DB20008950590F491E02D08957A936A93FA9339
:100DC200EA9308955A934A933A932A931A930A9369
:100DD20008955D814C813B812A81198108810895A2
:00000001FF
