:020000000C945E
:1000020042000C9400000C9400000C9400000C942C
:1000120000000C9400000C9400000C9400000C945E
:1000220000000C9400000C9400000C94A5000C94A9
:1000320000000C946F000C9400000C948E000C9441
:1000420000000C9400000C9400000C9400000C942E
:1000520000001027E80364000A00010000100001FC
:1000620010000100000000000000000080C001003C
:1000720002006600060004006800020070026E00C2
:100082000000F894EE27ECBBF1E0FBBFEBBFE5BF4D
:100092008DE0A2E0BB27ED938A95E9F780E098E036
:1000A200A0E6ED930197E9F7E0E7F0E085919591FD
:1000B200009761F0A591B59105901590BF01F001EF
:1000C20005900D920197E1F7FB01F0CFEFE5EDBF4F
:1000D200E8E0EEBFC0E6D2E00C94A600EA93FA9301
:1000E200EFB7EA931A930A931BB10CB1E12FEC71AB
:1000F20089F4E52D5394F0E0E05AFD4F0083E8E0E7
:10010200E51509F455247394E8E0E71519F477240A
:10011200689420F80991199112C0EA93FA93EFB703
:10012200EA93882061F08A94E92D9394F0E0E859EB
:10013200FD4FE081ECB9E8E0E91509F49924E99171
:10014200EFBFF991E99118951895E0E0EABBEBBB96
:10015200E7BBE8BBE4BBE5BBE1BBE2BBE7E0E3BF77
:10016200E0E0E2BFECBFEFBDEEBDEDBDECBDE7BD33
:10017200E6BDEBBDEABDE9BDE8BDE2BDE5BDE4BD5E
:10018200E3BDE1E0E9BFE0E0E5BFE4BFE2E0EBB9F7
:10019200E8EDEAB9E6E8E0BDE0E0E0BDE7E6E9B9AE
:1001A200E0E8E8B9E0E0E7B9E3EAE6B9E0E8E0BFB1
:1001B200E0E0EDB9E6BFA8E035D07894E2E0ECB932
:1001C200A8EEB3E00E944F01F9CFFFCFAA93E5B3A7
:1001D200EF70AE2FE881E07FEA2BE5BB8DE08A95D8
:1001E200F1F7AA9A8DE08A95F1F7AA988DE08A959F
:1001F200F1F744C0AA93A881E9DFE881E295E88398
:10020200A881E4DF85E88A95F1F738C0A2E00E9470
:100212004101ACE0EFDFA1E00E944101E0E0AE2E3F
:10022200BE2E0895AA93E4B3E06FE4BBA29AA09A0B
:10023200A19AAA98A898A998D880E881E058E09352
:100242007202E881E054E0937302A4E1B0E00E94FC
:100252004F010E9447010E9447010E944701A0E20C
:10026200B5DF88EC90E00197F1F7A8E2C3DFA4E0E4
:10027200C1DFA5E8BFDFA6E0BDDFC8DF2196089594
:100282000E94FB00A3E0B0E00C944F01A0E30E94A7
:10029200E70088EC90E00197F1F70895109639F0A5
:1002A20080ED97E00197F1F7A8951197C9F70895A6
:00000001FF
