:080000000C9448000C94000070
:100008000C9400000C9400000C9400000C94000068
:100018000C9400000C9400000C9400000C94000058
:100028000C9400000C9400000C9400000C947500D3
:100038000C9400000C9400000C9400000C94000038
:100048000C94B8000C9400000C9400001027E803EE
:1000580064000A0001000010000110000100000007
:10006800FD00000000000000000025640025640A6F
:10007800000080C00100020066000A000400680059
:1000880002007D027A000000F894EE27ECBBF1E054
:10009800FBBFEBBFE5BF8DE0A2E0BB27ED938A95E0
:1000A800E9F780E098E0A0E6ED930197E9F7ECE73F
:1000B800F0E085919591009761F0A591B591059033
:1000C8001590BF01F00105900D920197E1F7FB0132
:1000D800F0CFEFE5EDBFE8E0EEBFC0E6D2E00C946C
:1000E800C400AA93EA93FA93EFB7EA931A930A9390
:1000F8001BB10CB1E12FEC71B1F4ED2DD394F0E00C
:10010800EC58FD4F0083E8E0ED1509F4DD24A091DB
:100118007C02AF5FA0937C02A83029F4E0E0E09372
:100128007C02689420F809911991E991EFBFF9913F
:10013800E991A99118951A93E0917C02E030E1F3D6
:10014800EC2DC394F0E0EC58FD4F1081E8E0EC157D
:1001580009F4CC24F894E0917C02E150E0937C020D
:100168007894E12F19910895EA93EFB7EA93E0E0C4
:100178004599E1E08E2E9924E991EFBFE991189510
:10018800E0E0EABBEBBBE7BBE8BBE4BBE5BBE0E810
:10019800E1BBE0E0E2BBE3BFE2BFECBFEFBDEEBD19
:1001A800EDBDECBDE7BDE6BDEBBDEABDE9BDE8BD13
:1001B800E2BDEBE6E5BDE0E0E4BDE3BDE9BFE5BFD8
:1001C800E4BFE2E0EBB9E8E9EAB9E6E8E0BDE0E07F
:1001D800E0BDE7E6E9B9E8E0E8B9E0E0E0BFE6B9A4
:1001E800EDB9E6BFA8E09CD078940E943F054A1478
:1001F8005B0421F5E5E7F0E0FA93EA93F4010E9445
:10020800C4050E94D90584E00E946E0326960E94C8
:100218003F05A3BCE0E6F2E0FA93EA93E2E7F0E0F8
:10022800FA93EA93F5010E94C4050E94D90584E077
:100238000E9440032896A0E6B2E062D0D6CFFFCF56
:10024800AA93E5B3EF70AE2FE881E07FEA2BE5BB18
:100258008DE08A95F1F7AA9A8DE08A95F1F7AA9828
:100268008DE08A95F1F70C94C701AA93A881E8DF7D
:10027800E881E295E883A881E3DF85E88A95F1F7CC
:1002880082C0AA93E881F0E0E358FD4FE081A9819C
:10029800AE0FEBDFE981E0938102E881E09382020F
:1002A80022960895A2E00E944E05ACE0DEDFA1E0B0
:1002B8000E944E05E0E0E0938202E09381020895F7
:1002C800AA93A881AA3031F0E0918302A09181021B
:1002D800AE1760F0E0E0EA93A0918202AF5FA093CE
:1002E8008202CFDFA881AA3009F44DC0E0918102D3
:1002F800EF5FE0938102A89AA881B7DFA89843C06E
:10030800BA93AA931A93A981BA81ED91A983BA8362
:100318001E2FE03019F0A12FD3DFF5CF18813DC093
:10032800AA93E4B3E06FE4BBA29AA09AA19AAA9810
:10033800A898A998E881E0938302E058E0937F02A7
:10034800E881E054E0938002A4E1B0E00E94B205A5
:100358000E9454050E9454050E945405A0E270DFD3
:1003680088EC90E00197F1F7A8E27FDFA4E07DDF59
:10037800A5E87BDFA6E079DF95DF05C0AA935D9B42
:10038800FECFE881ECB921960895BA93AA93AA8181
:10039800F5DFA881B9810E945C0523960895BA9378
:1003A800AA931A930A93AA81BB8112960E94D10537
:1003B800309729F1AA81BB8114960E94D1058F013B
:1003C800309761F00230E0E01E0780F0F8013197C5
:1003D8008F01AA81BB811496ED93FC93AA81BB81FE
:1003E80012960E945C053197AC81A083AA81BB81DB
:1003F8000E94D105FF2312F00E945C0506C0AA8165
:10040800BB81EFEFFFEFED93FC931981088196C153
:10041800BA93AA9326970E94DE0510E0AC85BD85A5
:10042800E0E0F0E0ED93FC93EA89FB893196EA8BF2
:10043800FB8B3197E4912E2FE03009F415C1E12FA1
:10044800E03039F4253211F411E002C00E9462054F
:100458000AC1E130A9F4253219F40E94620502C1EB
:1004680012E040E000E02D3211F401E0FCC02B3234
:1004780011F44BE2F8C0203211F440E2F4C002C09B
:10048800E23039F450E013E0203311F40068EBC097
:1004980003C0E33009F0E7C0203310F02A3308F036
:1004A80007C0AAE05A9F502DE22FE0535E0FDBC031
:1004B800E22FE33649F40E946905E889F989A481A5
:1004C800AA930E946F05CEC0E33741F40E946905E4
:1004D8000E9475050E9426051E2F0AC0E03761F4A8
:1004E8000E9469050E9475050E9432051E2F08604A
:1004F80002600F7730E034C0E43611F0E93611F4C9
:10050800046002C0E53731F4E4E5F0E0EE83FF83F0
:1005180015E00CC0E83511F4086003C0E83709F0AD
:10052800A1C0EEE5F0E0EE83FF8314E002FF14C003
:100538000E9469050E947F05AB85AA233AF4EA85E3
:10054800FB850E94C005EA87FB874DE2403011F029
:100558001F5F01C00B7F04C00E9469050E947F05D0
:1005680000FD11C0151778F407FF08C002FF04C08A
:100578000B7F242F115001C020E301C020E20E940C
:1005880062055150EFCF312F01FF17C03030A1F075
:1005980003FF06C0EE81FF812591EE83FF8305C02E
:1005A800AE81BF812D91AE83BF830E94620550301A
:1005B80009F051503150EACF4BC020E3EE81FF8162
:1005C8000E94D505E887F987EE81FF813296EE8390
:1005D800FF83E885F985AA85BB85AE17BF0750F06C
:1005E8002F5FA885B985EA85FB85EA1BFB0BEA879F
:1005F800FB87EFCF2A3328F003FF02C0295F01C031
:10060800295D04FD1AC0213320F4A885B985119706
:1006180009F409C0531710F000FF01C013C020E20D
:1006280007FF0BC020E3006102FF07C00B7F4A935E
:100638000E946F05503009F051500E9462055030F9
:1006480009F051503150A885B985129708F0B5CFF7
:1006580000FF08C0503031F05150E0E2EA930E94A8
:100668006F05F8CF10E0E0CEAC85BD850E94D105BE
:100678000E94E50564960895FF92F82E26970E9439
:10068800E0050E948705309719F4EFEFFFEF1DC0D2
:10069800DE0116960E94BC058D010E948705EE8337
:1006A800FF83E0E0E887E987DE011A960E948E055D
:1006B800E3EDF1E0FA93EA93DE011A96A9DE9F01D1
:1006C800AE81BF81E0E0EC93F9010E94E7052A962C
:1006D800FF900895FF92F82E26971A930A93DE0149
:1006E80014960E94BC058D01E0E0EC83ED83EE8357
:1006F800EF83DE0118960E948E05E9ECF1E0FA938B
:10070800EA93DE01189684DE198108812896FF9005
:100718000895BA93AA931A93A981BA81E0E0EC9359
:10072800AB81BC81EC911E2FE03019F0E0E0EC9336
:1007380003C00E949F001E2FE12F1881259608955F
:10074800FF92BA93AA9324970E94DE05E0E0F0E0B6
:10075800E887F9874E2FE889F9893196E88BF98B74
:100768003197E4913E2FE03009F425C10E949705A6
:10077800C1F0EDB7FEB7FA93EA934F930E949C0538
:100788004F913E2FE03019F00E94970509F407C0F9
:100798000E94A2051CF4EFEFFFEF0FC1EACF432F31
:1007A80009C1353209F0EEC050E0E889F989359180
:1007B800E88BF98B303310F03A3308F007C0AAE021
:1007C8005A9F502DE32FE0535E0FEFCF303009F4DE
:1007D800F2C0EDB7FEB7FA93EA934F930E949C05D7
:1007E8004F912E2FAE2F0E940C05E03039F00E9459
:1007F800A2051CF4EFEFFFEFE0C0EBCF203009F4C7
:10080800D1C0422F503009F45FEFE32FE33699F45B
:100818000E94A705EDB7FEB7FA93EA934F930E949B
:100828009C054F91D801EC930E94A2051CF4EFEFB0
:10083800FFEFC3C0A1C0E33741F50E94A705E52F2C
:100848005150E030F1F0EDB7FEB7FA93EA934F93C9
:100858000E949C054F913E2FE03019F00E949705A9
:1008680039F00E94A2051CF4EFEFFFEFA6C009C003
:100878001F930F930F5F1F4FE32FAF91BF91EC931F
:10088800DECFD801E0E0EC9377C06894F1F8E89403
:10089800F2F8E32FE43611F0E93619F4E894F1F8A8
:1008A80002C0E53711F42AE008C0E83711F420E166
:1008B80004C0E53209F466C07EC0E0E0EE83EF8351
:1008C8006894F0F8E52F5150E03009F446C0EDB7D0
:1008D800FEB7FA93EA934F930E949C054F913E2FDF
:1008E800E13238F40E94A2051CF4EFEFFFEF65C077
:1008F80017C0F1FC08C06894F1F83D3211F4F2F821
:10090800E1CF3B32F9F2203131F4A32F0E941705D1
:10091800E03031F009C0A32F0E940305E03021F434
:10092800F0FC49C0432F19C0313610F0375505C0C7
:10093800313410F0375301C03053E22FAE81BF81FC
:10094800F0E00E94C905DF01E32FF0E0EA0FFB1F8A
:10095800EE83FF83E894F0F8B5CF0E94A705F2FE76
:1009680006C0EE81FF810E94C005EE83FF83EE8101
:10097800FF81D801ED93FC93E885F9853196E887E6
:10098800F98718C0EDB7FEB7FA93EA934F930E9420
:100998009C054F91E31771F00E94A2051CF4EFEF3C
:1009A800FFEF0BC0E885F985309719F4EFEFFFEFFB
:1009B80004C001C0D0CEE885F9850E94E50562969D
:1009C800FF900895FF92F82E23971A930A93DE0159
:1009D80011960E94BC058D01E0E0EB83EC83DE01FB
:1009E80015960E948E05EDE8F3E0FA93EA93DE018E
:1009F8001896A6DE198108812596FF900895AA9376
:100A0800E1E0F991F03310F0FA3308F0EE27089599
:100A1800AA93E1E0F991F03229F0F93010F0FE30B4
:100A280008F0EE270895AA93E1E0F991F05340F019
:100A3800FA3038F0FF75F750FA3010F0F03108F05E
:100A4800EE270895BA93AA93A991B991EE27FF27A3
:100A58006D91662311F03196FBCF0895BA93AA934E
:100A6800AA27BB27E991F9910590002011F011966A
:100A7800FBCFFD010895E2E7F0E0FA93EA93EAE09C
:100A8800F0E060E070E00E94D90584E00E94E6048E
:100A9800269608950E943901A3E0B0E00C94B205AF
:100AA800A0E30E94240188EC90E00197F1F70895F3
:100AB800ED91FD913196FE93EE9308952A93AD85BD
:100AC800BE85EF85F88909950895E889F9893497ED
:100AD800E88BF98B0895AD85BE85EF85F889099572
:100AE8000895A889B98914960E94D105EE83FF83D9
:100AF800AE81BF810895A889B98914960E94D1054D
:100B0800EA87FB870895DE011C960E94BC050E94B7
:100B1800D10508950E94BC050E94D105FA93EA9375
:100B28001A930A930895A32F0E940C05E0300895A4
:100B3800AC85BD85EE85FF8509950895AA85BB8599
:100B4800AC91A0300895EE85FF853497EE87FF8736
:100B5800AE85BF8514960D911C910895109639F0B5
:100B680080ED97E00197F1F7A8951197C9F70895D7
:100B78000024AF0DB01D0895F195E195F04008955A
:100B88006F2F660F660B762F0895FA9FF02DEB9F57
:100B9800F00DEA9FE02DF10D0895ED91FC9111976C
:100BA80008950590F491E02D08957A936A93FA9345
:100BB800EA9308955A934A933A932A931A930A9375
:100BC80008955D814C813B812A81198108810895AE
:00000001FF
