:020000000C945E
:100002004C000C9400000C9400000C9400000C9422
:1000120000000C9400000C9400000C9400000C945E
:1000220000000C9400000C9400000C9400000C944E
:1000320000000C949A000C9400000C9400000C94A4
:1000420000000C9400000C9400000C9400000C942E
:1000520000001027E80364000A00010000100001FC
:10006200100001000000FE0000000000000000007F
:10007200256400310025640A000080C001000200EE
:1000820066000A00040068000200600275000200B7
:100092006A027C000000F894EE27ECBBF1E0FBBFA3
:1000A200EBBFE5BF8DE0A2E0BB27ED938A95E9F7B0
:1000B20080E098E0A0E6ED930197E9F7EEE7F0E043
:1000C20085919591009761F0A591B5910590159054
:1000D200BF01F00105900D920197E1F7FB01F0CF0E
:1000E200EFE5EDBFE8E0EEBFC0E6D2E00C94BD0064
:1000F2001A93DD20F1F3EA2DA394F0E0EE59FD4FBF
:100102001081E8E0EA1509F4AA24F894DA947894C4
:10011200E12F19910895AA93E881E7B98BE18A95B5
:10012200F1F7369A349BFECF349AE4B1F5B10C94D0
:10013200BC01EA93FA93EFB7EA931A930A931BB1BD
:100142000CB1E12FEC7189F4EB2DB394F0E0EE5990
:10015200FD4F0083E8E0EB1509F4BB24D394E8E0FB
:10016200ED1519F4DD24689420F809911991E991AB
:10017200EFBFF991E9911895E0E0EABBEBBBE8E04B
:10018200E7BBE0E0E8BBE4BBE5BBE1BBE2BBEAE620
:10019200E3BFE0E0E2BFE0E8ECBFE0E0EFBDEEBDD0
:1001A200EDBDECBDE7BDE6BDEBBDEABDE9BDE8BD19
:1001B200E2BDE5BDE4BDE3BDE9BFE5BFE4BFE2E00A
:1001C200EBB9E8E9EAB9E6E8E0BDE0E0E0BDE7E680
:1001D200E9B9E0E8E8B9E0E0E7B9E3EAE6B9E0E086
:1001E200E0BFEDB9E6BFA8E093D078940E94D004B6
:1001F2004814590421F5A0E6B2E07AD0A0E08BDFE2
:10020200662777270E94A605DF01CB01ECEBF4E716
:1002120063E070E40E94D4050E946F053F01E7E7A6
:10022200F0E0FA93EA93F3010E9429060E943E0647
:1002320084E00E94FF0226960E94D0048CBED6CF94
:10024200FFCFAA93E5B3EF70AE2FE881E07FEA2BF0
:10025200E5BB8DE08A95F1F7AA9A8DE08A95F1F7D0
:10026200AA988DE08A95F1F70C94BC01AA93A88113
:10027200E8DFE881E295E883A881E3DF85E88A95F3
:10028200F1F779C0AA93E881F0E0E659FD4FE081E9
:10029200A981AE0FEBDFC980E881E0936E0222965E
:1002A2000895A2E00E94DF04ACE0E0DFA1E00E943A
:1002B200DF04E0E0E0936E02CE2E0895AA93A881B7
:1002C200AA3021F0E0916F02CE1660F0E0E0EA93EE
:1002D200A0916E02AF5FA0936E02D4DFA881AA3014
:1002E20009F449C0C394A89AA881C0DFA89843C062
:1002F200BA93AA931A93A981BA81ED91A983BA8379
:100302001E2FE03019F0A12FD9DFF5CF188140C0A0
:10031200AA93E4B3E06FE4BBA29AA09AA19AAA9826
:10032200A898A998E881E0936F02E058E0936C02E4
:10033200E881E054E0936D02A4E1B0E00E9436054A
:100342000E94E5040E94E5040E94E504A0E279DF30
:1003520088EC90E00197F1F7A8E288DFA4E086DF5D
:10036200A5E884DFA6E082DF9CDF05C0AA935D9B3F
:10037200FECFE881ECB921960895BA93AA93AA8197
:10038200F5DFA881B981ED91FD913196FE93EE934F
:1003920023960895BA93AA9326970E94430610E0E3
:1003A200AC85BD85E0E0F0E0ED93FC93EA89FB8942
:1003B2003196EA8BFB8B3197E4912E2FE03009F4D2
:1003C20015C1E12FE03039F4253211F411E002C0F9
:1003D2000E94ED040AC1E130A9F4253219F40E9409
:1003E200ED0402C112E040E000E02D3211F401E020
:1003F200FCC02B3211F44BE2F8C0203211F440E27F
:10040200F4C002C0E23039F450E013E0203311F4BA
:100412000068EBC003C0E33009F0E7C0203310F0FE
:100422002A3308F007C0AAE05A9F502DE22FE0536A
:100432005E0FDBC0E22FE33649F40E94F404E88940
:10044200F989A481AA930E94FA04CEC0E33741F449
:100452000E94F4040E9400050E94B7041E2F0AC0E5
:10046200E03761F40E94F4040E9400050E94C30474
:100472001E2F086002600F7730E034C0E43611F0BE
:10048200E93611F4046002C0E53731F4E4E5F0E046
:10049200EE83FF8315E00CC0E83511F4086003C059
:1004A200E83709F0A1C0EEE5F0E0EE83FF8314E047
:1004B20002FF14C00E94F4040E940A05AB85AA231D
:1004C2003AF4EA85FB850E941D06EA87FB874DE226
:1004D200403011F01F5F01C00B7F04C00E94F40482
:1004E2000E940A0500FD11C0151778F407FF08C025
:1004F20002FF04C00B7F242F115001C020E301C072
:1005020020E20E94ED045150EFCF312F01FF17C0BE
:100512003030A1F003FF06C0EE81FF812591EE830A
:10052200FF8305C0AE81BF812D91AE83BF830E9440
:10053200ED04503009F051503150EACF4BC020E366
:10054200EE81FF810E943A06E887F987EE81FF81FA
:100552003296EE83FF83E885F985AA85BB85AE17BF
:10056200BF0750F02F5FA885B985EA85FB85EA1B96
:10057200FB0BEA87FB87EFCF2A3328F003FF02C089
:10058200295F01C0295D04FD1AC0213320F4A8852A
:10059200B985119709F409C0531710F000FF01C083
:1005A20013C020E207FF0BC020E3006102FF07C077
:1005B2000B7F4A930E94FA04503009F051500E9476
:1005C200ED04503009F051503150A885B985129789
:1005D20008F0B5CF00FF08C0503031F05150E0E2D2
:1005E200EA930E94FA04F8CF10E0E0CEAC85BD8514
:1005F2000E9436060E944A0664960895FF92F82EDB
:1006020026971A930A93DE0114960E9419068D0109
:10061200E0E0EC83ED83EE83EF83DE0118960E9427
:100622001205EEEBF1E0FA93EA93DE011896B2DEE0
:10063200198108812896FF900895BA93AA931A9374
:10064200A981BA81E0E0EC93AB81BC81EC911E2FD1
:10065200E03019F0E0E0EC9303C00E9479001E2F15
:10066200E12F188125960895FF92BA93AA932497B1
:100672000E944306E0E0F0E0E887F9874E2FE88920
:10068200F9893196E88BF98B3197E4913E2FE0306E
:1006920009F425C10E941B05C1F0EDB7FEB7FA931C
:1006A200EA934F930E9420054F913E2FE03019F0BC
:1006B2000E941B0509F407C00E9426051CF4EFEFF7
:1006C200FFEF0FC1EACF432F09C1353209F0EEC067
:1006D20050E0E889F9893591E88BF98B303310F0D5
:1006E2003A3308F007C0AAE05A9F502DE32FE05397
:1006F2005E0FEFCF303009F4F2C0EDB7FEB7FA93D8
:10070200EA934F930E9420054F912E2FAE2F0E9405
:100712009D04E03039F00E9426051CF4EFEFFFEF54
:10072200E0C0EBCF203009F4D1C0422F503009F4A1
:100732005FEFE32FE33699F40E942B05EDB7FEB786
:10074200FA93EA934F930E9420054F91D801EC93BC
:100752000E9426051CF4EFEFFFEFC3C0A1C0E337F0
:1007620041F50E942B05E52F5150E030F1F0EDB735
:10077200FEB7FA93EA934F930E9420054F913E2FC2
:10078200E03019F00E941B0539F00E9426051CF486
:10079200EFEFFFEFA6C009C01F930F930F5F1F4F2C
:1007A200E32FAF91BF91EC93DECFD801E0E0EC9361
:1007B20077C06894F1F8E894F2F8E32FE43611F088
:1007C200E93619F4E894F1F802C0E53711F42AE0A9
:1007D20008C0E83711F420E104C0E53209F466C02C
:1007E2007EC0E0E0EE83EF836894F0F8E52F51508D
:1007F200E03009F446C0EDB7FEB7FA93EA934F939F
:100802000E9420054F913E2FE13238F40E942605C6
:100812001CF4EFEFFFEF65C017C0F1FC08C068944D
:10082200F1F83D3211F4F2F8E1CF3B32F9F2203126
:1008320031F4A32F0E94A804E03031F009C0A32FA5
:100842000E949404E03021F4F0FC49C0432F19C007
:10085200313610F0375505C0313410F0375301C02E
:100862003053E22FAE81BF81F0E00E942E06DF01FD
:10087200E32FF0E0EA0FFB1FEE83FF83E894F0F82A
:10088200B5CF0E942B05F2FE06C0EE81FF810E94C9
:100892001D06EE83FF83EE81FF81D801ED93FC9369
:1008A200E885F9853196E887F98718C0EDB7FEB774
:1008B200FA93EA934F930E9420054F91E31771F048
:1008C2000E9426051CF4EFEFFFEF0BC0E885F985C7
:1008D200309719F4EFEFFFEF04C001C0D0CEE885E6
:1008E200F9850E944A066296FF900895FF92F82EBB
:1008F20023971A930A93DE0111960E9419068D011D
:10090200E0E0EB83EC83DE0115960E941205EEE136
:10091200F3E0FA93EA93DE011896A6DE19810881C4
:100922002596FF900895AA93E1E0F991F03310F033
:10093200FA3308F0EE270895AA93E1E0F991F03234
:1009420029F0F93010F0FE3008F0EE270895AA934E
:10095200E1E0F991F05340F0FA3038F0FF75F750CA
:10096200FA3010F0F03108F0EE270895BA93AA9306
:10097200A991B991EE27FF276D91662311F0319667
:10098200FBCF0895BA93AA93AA27BB27E991F991BD
:100992000590002011F01196FBCFFD010895E2E7CA
:1009A200F0E0FA93EA93E8E0F0E060E070E00E94A1
:1009B2003E0684E00E947704269608950E9437013D
:1009C200A3E0B0E00C943605A0E30E94220188EC7B
:1009D20090E00197F1F708952A93AD85BE85EF85E2
:1009E200F88909950895E889F9893497E88BF98B94
:1009F2000895AD85BE85EF85F88909950895A88982
:100A0200B98914960E943606EE83FF83AE81BF81B8
:100A12000895A889B98914960E943606EA87FB8749
:100A220008950E9419060E943606FA93EA931A93D1
:100A32000A930895A32F0E949D04E0300895AC8587
:100A4200BD85EE85FF8509950895AA85BB85AC9184
:100A5200A0300895EE85FF853497EE87FF87AE8537
:100A6200BF8514960D911C910895109639F080ED72
:100A720097E00197F1F7A8951197C9F708955523C3
:100A820042F4503811F4E0FF04C03196691F791F17
:100A92006BF050E8572711F45F9373C05F3F31F05A
:100AA200660F000C57956795752F08955F93002088
:100AB2000AF073C06CC050E8192E1522880F991FD6
:100AC2009527550F879550E8072E0522660F771F49
:100AD2007527550F67950895689401C0E8945F9350
:100AE200F2DF703818F07F3F08F44BC056E1571B15
:100AF200AAF4519558300EF4593030F0EFEFFFEF71
:100B02006FEF7FE777F91AC077275523B9F0EE0F19
:100B1200FF1F661F771F5A95D1F710C077275830ED
:100B220028F0EF2FF62F672F5850F9CF552331F0C9
:100B320076956795F795E7955A95D1F700200AF4CF
:100B42007FD05F910895689401C0E8943097604027
:100B52007040B1F0002426F0772312F4009470D094
:100B6200172E7EE1112032F07A95EE0FFF1F661FDD
:100B7200111CF9CFEF2FF62F612D5F938ADF5F9162
:100B82000895EE27FF27662777275F910895EFEFF5
:100B9200FFEF6FE77FEF5F910895EFEFFFEF6FE7F2
:100BA2007FE75F9108955F9386DF703821F411200B
:100BB2000AF4EDCFF2CF903809F4E3CF0124089480
:100BC200970B1BF4D4F30020F3CF792F1F932F93AD
:100BD2003F934F9311241127222733274427552768
:100BE20090E2AE17BF078607410730F0AE1BBF0B7E
:100BF200860B410B089401C08894551F221F331F96
:100C0200111CAA1FBB1F881F441F9A9551F7F90197
:100C1200612D4F913F912F911F91662332F0550F15
:100C2200EE1FFF1F661F7A9543F229DF5F91089539
:100C32000024AF0DB01D0895F195E195F04008959F
:100C4200F09560957095E195FF4F6F4F7F4F089536
:100C52006F2F660F660B762F0895FA9FF02DEB9F8C
:100C6200F00DEA9FE02DF10D0895ED91FC911197A1
:100C720008950590F491E02D08957A936A93FA937A
:100C8200EA9308955A934A933A932A931A930A93AA
:100C920008955D814C813B812A81198108810895E3
:00000001FF
